{
  "contractName": "RefuToken",
  "abi": [
    {
      "inputs": [
        {
          "internalType": "uint256",
          "name": "initialPrice",
          "type": "uint256"
        },
        {
          "internalType": "address",
          "name": "initialOwner",
          "type": "address"
        }
      ],
      "stateMutability": "nonpayable",
      "type": "constructor"
    },
    {
      "inputs": [
        {
          "internalType": "address",
          "name": "spender",
          "type": "address"
        },
        {
          "internalType": "uint256",
          "name": "allowance",
          "type": "uint256"
        },
        {
          "internalType": "uint256",
          "name": "needed",
          "type": "uint256"
        }
      ],
      "name": "ERC20InsufficientAllowance",
      "type": "error"
    },
    {
      "inputs": [
        {
          "internalType": "address",
          "name": "sender",
          "type": "address"
        },
        {
          "internalType": "uint256",
          "name": "balance",
          "type": "uint256"
        },
        {
          "internalType": "uint256",
          "name": "needed",
          "type": "uint256"
        }
      ],
      "name": "ERC20InsufficientBalance",
      "type": "error"
    },
    {
      "inputs": [
        {
          "internalType": "address",
          "name": "approver",
          "type": "address"
        }
      ],
      "name": "ERC20InvalidApprover",
      "type": "error"
    },
    {
      "inputs": [
        {
          "internalType": "address",
          "name": "receiver",
          "type": "address"
        }
      ],
      "name": "ERC20InvalidReceiver",
      "type": "error"
    },
    {
      "inputs": [
        {
          "internalType": "address",
          "name": "sender",
          "type": "address"
        }
      ],
      "name": "ERC20InvalidSender",
      "type": "error"
    },
    {
      "inputs": [
        {
          "internalType": "address",
          "name": "spender",
          "type": "address"
        }
      ],
      "name": "ERC20InvalidSpender",
      "type": "error"
    },
    {
      "inputs": [
        {
          "internalType": "address",
          "name": "owner",
          "type": "address"
        }
      ],
      "name": "OwnableInvalidOwner",
      "type": "error"
    },
    {
      "inputs": [
        {
          "internalType": "address",
          "name": "account",
          "type": "address"
        }
      ],
      "name": "OwnableUnauthorizedAccount",
      "type": "error"
    },
    {
      "anonymous": false,
      "inputs": [
        {
          "indexed": true,
          "internalType": "address",
          "name": "owner",
          "type": "address"
        },
        {
          "indexed": true,
          "internalType": "address",
          "name": "spender",
          "type": "address"
        },
        {
          "indexed": false,
          "internalType": "uint256",
          "name": "value",
          "type": "uint256"
        }
      ],
      "name": "Approval",
      "type": "event"
    },
    {
      "anonymous": false,
      "inputs": [
        {
          "indexed": true,
          "internalType": "uint256",
          "name": "tokenId",
          "type": "uint256"
        },
        {
          "indexed": true,
          "internalType": "address",
          "name": "owner",
          "type": "address"
        },
        {
          "indexed": false,
          "internalType": "uint256",
          "name": "totalSupply",
          "type": "uint256"
        }
      ],
      "name": "AssetCreated",
      "type": "event"
    },
    {
      "anonymous": false,
      "inputs": [
        {
          "indexed": false,
          "internalType": "address",
          "name": "buyer",
          "type": "address"
        },
        {
          "indexed": false,
          "internalType": "uint256",
          "name": "amountOfETH",
          "type": "uint256"
        },
        {
          "indexed": false,
          "internalType": "uint256",
          "name": "amountOfTokens",
          "type": "uint256"
        }
      ],
      "name": "BuyTokens",
      "type": "event"
    },
    {
      "anonymous": false,
      "inputs": [
        {
          "indexed": false,
          "internalType": "bool",
          "name": "stopped",
          "type": "bool"
        }
      ],
      "name": "EmergencyStop",
      "type": "event"
    },
    {
      "anonymous": false,
      "inputs": [
        {
          "indexed": true,
          "internalType": "address",
          "name": "by",
          "type": "address"
        }
      ],
      "name": "EmergencyStopActivated",
      "type": "event"
    },
    {
      "anonymous": false,
      "inputs": [
        {
          "indexed": true,
          "internalType": "address",
          "name": "previousOwner",
          "type": "address"
        },
        {
          "indexed": true,
          "internalType": "address",
          "name": "newOwner",
          "type": "address"
        }
      ],
      "name": "OwnershipTransferred",
      "type": "event"
    },
    {
      "anonymous": false,
      "inputs": [
        {
          "indexed": true,
          "internalType": "uint256",
          "name": "tokenId",
          "type": "uint256"
        },
        {
          "indexed": true,
          "internalType": "address",
          "name": "from",
          "type": "address"
        },
        {
          "indexed": true,
          "internalType": "address",
          "name": "to",
          "type": "address"
        }
      ],
      "name": "OwnershipTransferred",
      "type": "event"
    },
    {
      "anonymous": false,
      "inputs": [
        {
          "indexed": false,
          "internalType": "uint256",
          "name": "oldPrice",
          "type": "uint256"
        },
        {
          "indexed": false,
          "internalType": "uint256",
          "name": "newPrice",
          "type": "uint256"
        }
      ],
      "name": "PriceChanged",
      "type": "event"
    },
    {
      "anonymous": false,
      "inputs": [
        {
          "indexed": false,
          "internalType": "uint256",
          "name": "price",
          "type": "uint256"
        }
      ],
      "name": "PriceSet",
      "type": "event"
    },
    {
      "anonymous": false,
      "inputs": [
        {
          "indexed": true,
          "internalType": "address",
          "name": "purchaser",
          "type": "address"
        },
        {
          "indexed": false,
          "internalType": "uint256",
          "name": "amount",
          "type": "uint256"
        }
      ],
      "name": "TokensPurchased",
      "type": "event"
    },
    {
      "anonymous": false,
      "inputs": [
        {
          "indexed": true,
          "internalType": "address",
          "name": "purchaser",
          "type": "address"
        },
        {
          "indexed": false,
          "internalType": "uint256",
          "name": "amount",
          "type": "uint256"
        }
      ],
      "name": "TokensReturned",
      "type": "event"
    },
    {
      "anonymous": false,
      "inputs": [
        {
          "indexed": true,
          "internalType": "address",
          "name": "from",
          "type": "address"
        },
        {
          "indexed": true,
          "internalType": "address",
          "name": "to",
          "type": "address"
        },
        {
          "indexed": false,
          "internalType": "uint256",
          "name": "value",
          "type": "uint256"
        }
      ],
      "name": "Transfer",
      "type": "event"
    },
    {
      "anonymous": false,
      "inputs": [
        {
          "indexed": true,
          "internalType": "address",
          "name": "from",
          "type": "address"
        },
        {
          "indexed": true,
          "internalType": "address",
          "name": "to",
          "type": "address"
        },
        {
          "indexed": false,
          "internalType": "uint256",
          "name": "value",
          "type": "uint256"
        }
      ],
      "name": "TransferEvt",
      "type": "event"
    },
    {
      "inputs": [],
      "name": "_owner",
      "outputs": [
        {
          "internalType": "address",
          "name": "",
          "type": "address"
        }
      ],
      "stateMutability": "view",
      "type": "function"
    },
    {
      "inputs": [
        {
          "internalType": "address",
          "name": "owner",
          "type": "address"
        },
        {
          "internalType": "address",
          "name": "spender",
          "type": "address"
        }
      ],
      "name": "allowance",
      "outputs": [
        {
          "internalType": "uint256",
          "name": "",
          "type": "uint256"
        }
      ],
      "stateMutability": "view",
      "type": "function"
    },
    {
      "inputs": [
        {
          "internalType": "address",
          "name": "spender",
          "type": "address"
        },
        {
          "internalType": "uint256",
          "name": "value",
          "type": "uint256"
        }
      ],
      "name": "approve",
      "outputs": [
        {
          "internalType": "bool",
          "name": "",
          "type": "bool"
        }
      ],
      "stateMutability": "nonpayable",
      "type": "function"
    },
    {
      "inputs": [],
      "name": "decimals",
      "outputs": [
        {
          "internalType": "uint8",
          "name": "",
          "type": "uint8"
        }
      ],
      "stateMutability": "view",
      "type": "function"
    },
    {
      "inputs": [
        {
          "internalType": "address",
          "name": "",
          "type": "address"
        },
        {
          "internalType": "uint256",
          "name": "",
          "type": "uint256"
        }
      ],
      "name": "fractionalBalances",
      "outputs": [
        {
          "internalType": "uint256",
          "name": "",
          "type": "uint256"
        }
      ],
      "stateMutability": "view",
      "type": "function"
    },
    {
      "inputs": [],
      "name": "fractionalDecimal",
      "outputs": [
        {
          "internalType": "uint256",
          "name": "",
          "type": "uint256"
        }
      ],
      "stateMutability": "view",
      "type": "function"
    },
    {
      "inputs": [],
      "name": "name",
      "outputs": [
        {
          "internalType": "string",
          "name": "",
          "type": "string"
        }
      ],
      "stateMutability": "view",
      "type": "function"
    },
    {
      "inputs": [],
      "name": "nextTokenId",
      "outputs": [
        {
          "internalType": "uint256",
          "name": "",
          "type": "uint256"
        }
      ],
      "stateMutability": "view",
      "type": "function"
    },
    {
      "inputs": [],
      "name": "owner",
      "outputs": [
        {
          "internalType": "address",
          "name": "",
          "type": "address"
        }
      ],
      "stateMutability": "view",
      "type": "function"
    },
    {
      "inputs": [],
      "name": "refuToken",
      "outputs": [
        {
          "internalType": "contract IERC20",
          "name": "",
          "type": "address"
        }
      ],
      "stateMutability": "view",
      "type": "function"
    },
    {
      "inputs": [],
      "name": "renounceOwnership",
      "outputs": [],
      "stateMutability": "nonpayable",
      "type": "function"
    },
    {
      "inputs": [],
      "name": "symbol",
      "outputs": [
        {
          "internalType": "string",
          "name": "",
          "type": "string"
        }
      ],
      "stateMutability": "view",
      "type": "function"
    },
    {
      "inputs": [
        {
          "internalType": "uint256",
          "name": "",
          "type": "uint256"
        }
      ],
      "name": "tokenizedAssets",
      "outputs": [
        {
          "internalType": "address",
          "name": "owner",
          "type": "address"
        },
        {
          "internalType": "uint256",
          "name": "totalSupply",
          "type": "uint256"
        },
        {
          "internalType": "uint256",
          "name": "remainingSupply",
          "type": "uint256"
        },
        {
          "internalType": "string",
          "name": "name",
          "type": "string"
        }
      ],
      "stateMutability": "view",
      "type": "function"
    },
    {
      "inputs": [],
      "name": "totalSupply",
      "outputs": [
        {
          "internalType": "uint256",
          "name": "",
          "type": "uint256"
        }
      ],
      "stateMutability": "view",
      "type": "function"
    },
    {
      "inputs": [
        {
          "internalType": "address",
          "name": "to",
          "type": "address"
        },
        {
          "internalType": "uint256",
          "name": "value",
          "type": "uint256"
        }
      ],
      "name": "transfer",
      "outputs": [
        {
          "internalType": "bool",
          "name": "",
          "type": "bool"
        }
      ],
      "stateMutability": "nonpayable",
      "type": "function"
    },
    {
      "inputs": [
        {
          "internalType": "address",
          "name": "from",
          "type": "address"
        },
        {
          "internalType": "address",
          "name": "to",
          "type": "address"
        },
        {
          "internalType": "uint256",
          "name": "value",
          "type": "uint256"
        }
      ],
      "name": "transferFrom",
      "outputs": [
        {
          "internalType": "bool",
          "name": "",
          "type": "bool"
        }
      ],
      "stateMutability": "nonpayable",
      "type": "function"
    },
    {
      "inputs": [
        {
          "internalType": "address",
          "name": "newOwner",
          "type": "address"
        }
      ],
      "name": "transferOwnership",
      "outputs": [],
      "stateMutability": "nonpayable",
      "type": "function"
    },
    {
      "inputs": [
        {
          "internalType": "address",
          "name": "account",
          "type": "address"
        },
        {
          "internalType": "uint256",
          "name": "amount",
          "type": "uint256"
        }
      ],
      "name": "mint",
      "outputs": [],
      "stateMutability": "nonpayable",
      "type": "function"
    },
    {
      "inputs": [
        {
          "internalType": "uint256",
          "name": "price",
          "type": "uint256"
        }
      ],
      "name": "setPrice",
      "outputs": [],
      "stateMutability": "nonpayable",
      "type": "function"
    },
    {
      "inputs": [
        {
          "internalType": "bool",
          "name": "stopped",
          "type": "bool"
        }
      ],
      "name": "emergencyStop",
      "outputs": [],
      "stateMutability": "nonpayable",
      "type": "function"
    },
    {
      "inputs": [
        {
          "internalType": "uint256",
          "name": "numTokens",
          "type": "uint256"
        }
      ],
      "name": "CustomerBuyToken",
      "outputs": [
        {
          "internalType": "bool",
          "name": "",
          "type": "bool"
        }
      ],
      "stateMutability": "payable",
      "type": "function"
    },
    {
      "inputs": [
        {
          "internalType": "uint256",
          "name": "TokenId",
          "type": "uint256"
        },
        {
          "internalType": "uint256",
          "name": "numTokens",
          "type": "uint256"
        }
      ],
      "name": "ReturnToken",
      "outputs": [
        {
          "internalType": "bool",
          "name": "",
          "type": "bool"
        }
      ],
      "stateMutability": "nonpayable",
      "type": "function"
    },
    {
      "inputs": [
        {
          "internalType": "uint256",
          "name": "totalSupply",
          "type": "uint256"
        },
        {
          "internalType": "string",
          "name": "assetName",
          "type": "string"
        }
      ],
      "name": "createAsset",
      "outputs": [],
      "stateMutability": "nonpayable",
      "type": "function"
    },
    {
      "inputs": [
        {
          "internalType": "uint256",
          "name": "tokenId",
          "type": "uint256"
        },
        {
          "internalType": "uint256",
          "name": "amount",
          "type": "uint256"
        }
      ],
      "name": "CustomerBuyAsset",
      "outputs": [],
      "stateMutability": "nonpayable",
      "type": "function"
    },
    {
      "inputs": [
        {
          "internalType": "address",
          "name": "account",
          "type": "address"
        }
      ],
      "name": "balanceOf",
      "outputs": [
        {
          "internalType": "uint256",
          "name": "",
          "type": "uint256"
        }
      ],
      "stateMutability": "view",
      "type": "function"
    },
    {
      "inputs": [
        {
          "internalType": "address",
          "name": "account",
          "type": "address"
        }
      ],
      "name": "REFUbalanceOf",
      "outputs": [
        {
          "internalType": "uint256",
          "name": "",
          "type": "uint256"
        }
      ],
      "stateMutability": "view",
      "type": "function"
    },
    {
      "inputs": [
        {
          "internalType": "address",
          "name": "account",
          "type": "address"
        }
      ],
      "name": "ethbalance",
      "outputs": [
        {
          "internalType": "uint256",
          "name": "",
          "type": "uint256"
        }
      ],
      "stateMutability": "view",
      "type": "function"
    },
    {
      "inputs": [
        {
          "internalType": "uint256",
          "name": "tokenId",
          "type": "uint256"
        },
        {
          "internalType": "address",
          "name": "ownerAddress",
          "type": "address"
        }
      ],
      "name": "fractionalOwnership",
      "outputs": [
        {
          "internalType": "uint256",
          "name": "",
          "type": "uint256"
        }
      ],
      "stateMutability": "view",
      "type": "function"
    },
    {
      "inputs": [],
      "name": "getPrice",
      "outputs": [
        {
          "internalType": "uint256",
          "name": "",
          "type": "uint256"
        }
      ],
      "stateMutability": "view",
      "type": "function"
    },
    {
      "inputs": [],
      "name": "getEmergencyStopStatus",
      "outputs": [
        {
          "internalType": "bool",
          "name": "",
          "type": "bool"
        }
      ],
      "stateMutability": "view",
      "type": "function"
    }
  ],
  "bytecode": "0x608060405230600860016101000a81548173ffffffffffffffffffffffffffffffffffffffff021916908373ffffffffffffffffffffffffffffffffffffffff16021790555060016009556003600a553480156200005b575f80fd5b5060405162003e9c38038062003e9c833981810160405281019062000081919062000683565b806040518060400160405280600981526020017f52656675546f6b656e00000000000000000000000000000000000000000000008152506040518060400160405280600481526020017f52454655000000000000000000000000000000000000000000000000000000008152508160039081620000ff919062000923565b50806004908162000111919062000923565b5050505f73ffffffffffffffffffffffffffffffffffffffff168173ffffffffffffffffffffffffffffffffffffffff160362000187575f6040517f1e4fbdf70000000000000000000000000000000000000000000000000000000081526004016200017e919062000a18565b60405180910390fd5b62000198816200027560201b60201c565b503060065f6101000a81548173ffffffffffffffffffffffffffffffffffffffff021916908373ffffffffffffffffffffffffffffffffffffffff1602179055505f60085f6101000a81548160ff02191690831515021790555081600781905550620002153069d3c21bcecceda10000006200033860201b60201c565b620f4240600b5f3073ffffffffffffffffffffffffffffffffffffffff1673ffffffffffffffffffffffffffffffffffffffff1681526020019081526020015f205f82825462000266919062000a60565b92505081905550505062000b01565b5f60055f9054906101000a900473ffffffffffffffffffffffffffffffffffffffff1690508160055f6101000a81548173ffffffffffffffffffffffffffffffffffffffff021916908373ffffffffffffffffffffffffffffffffffffffff1602179055508173ffffffffffffffffffffffffffffffffffffffff168173ffffffffffffffffffffffffffffffffffffffff167f8be0079c531659141344cd1fd0a4f28419497f9722a3daafe3b4186f6b6457e060405160405180910390a35050565b5f73ffffffffffffffffffffffffffffffffffffffff168273ffffffffffffffffffffffffffffffffffffffff1603620003ab575f6040517fec442f05000000000000000000000000000000000000000000000000000000008152600401620003a2919062000a18565b60405180910390fd5b620003be5f8383620003c260201b60201c565b5050565b5f73ffffffffffffffffffffffffffffffffffffffff168373ffffffffffffffffffffffffffffffffffffffff160362000416578060025f82825462000409919062000a60565b92505081905550620004e7565b5f805f8573ffffffffffffffffffffffffffffffffffffffff1673ffffffffffffffffffffffffffffffffffffffff1681526020019081526020015f2054905081811015620004a2578381836040517fe450d38c000000000000000000000000000000000000000000000000000000008152600401620004999392919062000aab565b60405180910390fd5b8181035f808673ffffffffffffffffffffffffffffffffffffffff1673ffffffffffffffffffffffffffffffffffffffff1681526020019081526020015f2081905550505b5f73ffffffffffffffffffffffffffffffffffffffff168273ffffffffffffffffffffffffffffffffffffffff160362000530578060025f82825403925050819055506200057a565b805f808473ffffffffffffffffffffffffffffffffffffffff1673ffffffffffffffffffffffffffffffffffffffff1681526020019081526020015f205f82825401925050819055505b8173ffffffffffffffffffffffffffffffffffffffff168373ffffffffffffffffffffffffffffffffffffffff167fddf252ad1be2c89b69c2b068fc378daa952ba7f163c4a11628f55a4df523b3ef83604051620005d9919062000ae6565b60405180910390a3505050565b5f80fd5b5f819050919050565b620005fe81620005ea565b811462000609575f80fd5b50565b5f815190506200061c81620005f3565b92915050565b5f73ffffffffffffffffffffffffffffffffffffffff82169050919050565b5f6200064d8262000622565b9050919050565b6200065f8162000641565b81146200066a575f80fd5b50565b5f815190506200067d8162000654565b92915050565b5f80604083850312156200069c576200069b620005e6565b5b5f620006ab858286016200060c565b9250506020620006be858286016200066d565b9150509250929050565b5f81519050919050565b7f4e487b71000000000000000000000000000000000000000000000000000000005f52604160045260245ffd5b7f4e487b71000000000000000000000000000000000000000000000000000000005f52602260045260245ffd5b5f60028204905060018216806200074457607f821691505b6020821081036200075a5762000759620006ff565b5b50919050565b5f819050815f5260205f209050919050565b5f6020601f8301049050919050565b5f82821b905092915050565b5f60088302620007be7fffffffffffffffffffffffffffffffffffffffffffffffffffffffffffffffff8262000781565b620007ca868362000781565b95508019841693508086168417925050509392505050565b5f819050919050565b5f6200080b62000805620007ff84620005ea565b620007e2565b620005ea565b9050919050565b5f819050919050565b6200082683620007eb565b6200083e620008358262000812565b8484546200078d565b825550505050565b5f90565b6200085462000846565b620008618184846200081b565b505050565b5b8181101562000888576200087c5f826200084a565b60018101905062000867565b5050565b601f821115620008d757620008a18162000760565b620008ac8462000772565b81016020851015620008bc578190505b620008d4620008cb8562000772565b83018262000866565b50505b505050565b5f82821c905092915050565b5f620008f95f1984600802620008dc565b1980831691505092915050565b5f620009138383620008e8565b9150826002028217905092915050565b6200092e82620006c8565b67ffffffffffffffff8111156200094a5762000949620006d2565b5b6200095682546200072c565b620009638282856200088c565b5f60209050601f83116001811462000999575f841562000984578287015190505b62000990858262000906565b865550620009ff565b601f198416620009a98662000760565b5f5b82811015620009d257848901518255600182019150602085019450602081019050620009ab565b86831015620009f25784890151620009ee601f891682620008e8565b8355505b6001600288020188555050505b505050505050565b62000a128162000641565b82525050565b5f60208201905062000a2d5f83018462000a07565b92915050565b7f4e487b71000000000000000000000000000000000000000000000000000000005f52601160045260245ffd5b5f62000a6c82620005ea565b915062000a7983620005ea565b925082820190508082111562000a945762000a9362000a33565b5b92915050565b62000aa581620005ea565b82525050565b5f60608201905062000ac05f83018662000a07565b62000acf602083018562000a9a565b62000ade604083018462000a9a565b949350505050565b5f60208201905062000afb5f83018462000a9a565b92915050565b61338d8062000b0f5f395ff3fe6080604052600436106101cc575f3560e01c8063715018a6116100f657806395d89b4111610094578063b812fca211610063578063b812fca2146106a0578063cbcfe3ca146106df578063dd62ed3e14610707578063f2fde38b14610743576101cc565b806395d89b41146105e657806398d5fdca14610610578063a9059cbb1461063a578063b2bdfa7b14610676576101cc565b8063838d945c116100d0578063838d945c1461052e5780638da5cb5b1461056a5780639040a7a41461059457806391b7f5ed146105be576101cc565b8063715018a6146104b257806375794a3c146104c8578063795afa59146104f2576101cc565b806323b872dd1161016e57806359ad96a41161013d57806359ad96a4146103e6578063629fb642146104105780636eb09ce21461043a57806370a0823114610476576101cc565b806323b872dd14610330578063313ce5671461036c57806340c10f19146103965780634e5bf2b1146103be576101cc565b80630ac62e02116101aa5780630ac62e02146102725780630b7b74b71461029a57806317c6ab40146102ca57806318160ddd14610306576101cc565b806306fdde03146101d0578063095ea7b3146101fa57806309acd8b714610236575b5f80fd5b3480156101db575f80fd5b506101e461076b565b6040516101f19190612407565b60405180910390f35b348015610205575f80fd5b50610220600480360381019061021b91906124c5565b6107fb565b60405161022d919061251d565b60405180910390f35b348015610241575f80fd5b5061025c600480360381019061025791906124c5565b61081d565b6040516102699190612545565b60405180910390f35b34801561027d575f80fd5b5061029860048036038101906102939190612588565b61083d565b005b6102b460048036038101906102af91906125b3565b6108e2565b6040516102c1919061251d565b60405180910390f35b3480156102d5575f80fd5b506102f060048036038101906102eb91906125de565b610c51565b6040516102fd9190612545565b60405180910390f35b348015610311575f80fd5b5061031a610ca7565b6040516103279190612545565b60405180910390f35b34801561033b575f80fd5b506103566004803603810190610351919061261c565b610cb0565b604051610363919061251d565b60405180910390f35b348015610377575f80fd5b50610380610cde565b60405161038d9190612687565b60405180910390f35b3480156103a1575f80fd5b506103bc60048036038101906103b791906124c5565b610ce6565b005b3480156103c9575f80fd5b506103e460048036038101906103df91906126a0565b610d9e565b005b3480156103f1575f80fd5b506103fa6110aa565b6040516104079190612739565b60405180910390f35b34801561041b575f80fd5b506104246110cf565b604051610431919061251d565b60405180910390f35b348015610445575f80fd5b50610460600480360381019061045b9190612752565b6110e4565b60405161046d9190612545565b60405180910390f35b348015610481575f80fd5b5061049c60048036038101906104979190612752565b611104565b6040516104a99190612545565b60405180910390f35b3480156104bd575f80fd5b506104c661114a565b005b3480156104d3575f80fd5b506104dc61115d565b6040516104e99190612545565b60405180910390f35b3480156104fd575f80fd5b50610518600480360381019061051391906126a0565b611163565b604051610525919061251d565b60405180910390f35b348015610539575f80fd5b50610554600480360381019061054f9190612752565b61159d565b6040516105619190612545565b60405180910390f35b348015610575575f80fd5b5061057e61163e565b60405161058b919061278c565b60405180910390f35b34801561059f575f80fd5b506105a8611666565b6040516105b59190612545565b60405180910390f35b3480156105c9575f80fd5b506105e460048036038101906105df91906125b3565b61166c565b005b3480156105f1575f80fd5b506105fa611732565b6040516106079190612407565b60405180910390f35b34801561061b575f80fd5b506106246117c2565b6040516106319190612545565b60405180910390f35b348015610645575f80fd5b50610660600480360381019061065b91906124c5565b6117cb565b60405161066d919061251d565b60405180910390f35b348015610681575f80fd5b5061068a6117ed565b604051610697919061278c565b60405180910390f35b3480156106ab575f80fd5b506106c660048036038101906106c191906125b3565b611813565b6040516106d694939291906127a5565b60405180910390f35b3480156106ea575f80fd5b506107056004803603810190610700919061291b565b6118e4565b005b348015610712575f80fd5b5061072d60048036038101906107289190612975565b611b2b565b60405161073a9190612545565b60405180910390f35b34801561074e575f80fd5b5061076960048036038101906107649190612752565b611bad565b005b60606003805461077a906129e0565b80601f01602080910402602001604051908101604052809291908181526020018280546107a6906129e0565b80156107f15780601f106107c8576101008083540402835291602001916107f1565b820191905f5260205f20905b8154815290600101906020018083116107d457829003601f168201915b5050505050905090565b5f80610805611c31565b9050610812818585611c38565b600191505092915050565b600d602052815f5260405f20602052805f5260405f205f91509150505481565b610845611c4a565b8060085f6101000a81548160ff0219169083151502179055507fcbe1b789cda412d9e1c647ed03d0c71e2f71484be36f9ca2b2a346b29edf1b708160405161088d919061251d565b60405180910390a180156108df573373ffffffffffffffffffffffffffffffffffffffff167fab041f15b21509a5ebcd65d5f15a4cdb950cfdda572488827e5b44f28b2214e860405160405180910390a25b50565b5f60085f9054906101000a900460ff1615610932576040517f08c379a000000000000000000000000000000000000000000000000000000000815260040161092990612a5a565b60405180910390fd5b5f600754346109419190612ad2565b90505f8111610985576040517f08c379a000000000000000000000000000000000000000000000000000000000815260040161097c90612b4c565b60405180910390fd5b60065f9054906101000a900473ffffffffffffffffffffffffffffffffffffffff1673ffffffffffffffffffffffffffffffffffffffff166370a08231306040518263ffffffff1660e01b81526004016109df919061278c565b602060405180830381865afa1580156109fa573d5f803e3d5ffd5b505050506040513d601f19601f82011682018060405250810190610a1e9190612b7e565b831115610a60576040517f08c379a0000000000000000000000000000000000000000000000000000000008152600401610a5790612bf3565b60405180910390fd5b82600b5f3073ffffffffffffffffffffffffffffffffffffffff1673ffffffffffffffffffffffffffffffffffffffff1681526020019081526020015f205f828254610aac9190612c11565b9250508190555082600b5f3373ffffffffffffffffffffffffffffffffffffffff1673ffffffffffffffffffffffffffffffffffffffff1681526020019081526020015f205f828254610aff9190612c44565b925050819055505f60065f9054906101000a900473ffffffffffffffffffffffffffffffffffffffff1673ffffffffffffffffffffffffffffffffffffffff1663a9059cbb33670de0b6b3a764000087610b599190612c77565b6040518363ffffffff1660e01b8152600401610b76929190612cb8565b6020604051808303815f875af1158015610b92573d5f803e3d5ffd5b505050506040513d601f19601f82011682018060405250810190610bb69190612cf3565b905080610bf8576040517f08c379a0000000000000000000000000000000000000000000000000000000008152600401610bef90612d68565b60405180910390fd5b3373ffffffffffffffffffffffffffffffffffffffff167f8f28852646c20cc973d3a8218f7eefed58c25c909f78f0265af4818c3d4dc27185604051610c3e9190612545565b60405180910390a2600192505050919050565b5f600d5f8373ffffffffffffffffffffffffffffffffffffffff1673ffffffffffffffffffffffffffffffffffffffff1681526020019081526020015f205f8481526020019081526020015f2054905092915050565b5f600254905090565b5f80610cba611c31565b9050610cc7858285611cd1565b610cd2858585611d63565b60019150509392505050565b5f6012905090565b610cee611c4a565b60085f9054906101000a900460ff1615610d3d576040517f08c379a0000000000000000000000000000000000000000000000000000000008152600401610d3490612dd0565b60405180910390fd5b610d478282611e53565b80600b5f8473ffffffffffffffffffffffffffffffffffffffff1673ffffffffffffffffffffffffffffffffffffffff1681526020019081526020015f205f828254610d939190612c44565b925050819055505050565b5f600c5f8481526020019081526020015f2090505f82118015610dc5575080600201548211155b610e04576040517f08c379a0000000000000000000000000000000000000000000000000000000008152600401610dfb90612e38565b60405180910390fd5b81816002015f828254610e179190612c11565b9250508190555081600d5f3373ffffffffffffffffffffffffffffffffffffffff1673ffffffffffffffffffffffffffffffffffffffff1681526020019081526020015f205f8581526020019081526020015f205f828254610e799190612c44565b9250508190555081600d5f600860019054906101000a900473ffffffffffffffffffffffffffffffffffffffff1673ffffffffffffffffffffffffffffffffffffffff1673ffffffffffffffffffffffffffffffffffffffff1681526020019081526020015f205f8581526020019081526020015f205f828254610efd9190612c11565b9250508190555081600b5f3373ffffffffffffffffffffffffffffffffffffffff1673ffffffffffffffffffffffffffffffffffffffff1681526020019081526020015f205f828254610f509190612c11565b925050819055505f60065f9054906101000a900473ffffffffffffffffffffffffffffffffffffffff1673ffffffffffffffffffffffffffffffffffffffff1663a9059cbb30670de0b6b3a764000086610faa9190612c77565b6040518363ffffffff1660e01b8152600401610fc7929190612cb8565b6020604051808303815f875af1158015610fe3573d5f803e3d5ffd5b505050506040513d601f19601f820116820180604052508101906110079190612cf3565b905080611049576040517f08c379a000000000000000000000000000000000000000000000000000000000815260040161104090612d68565b60405180910390fd5b3073ffffffffffffffffffffffffffffffffffffffff163373ffffffffffffffffffffffffffffffffffffffff16857f16b85f49bf01212961345d3016c9a531894accf62eb7680f2045d79185cc0ec060405160405180910390a450505050565b60065f9054906101000a900473ffffffffffffffffffffffffffffffffffffffff1681565b5f60085f9054906101000a900460ff16905090565b5f8173ffffffffffffffffffffffffffffffffffffffff16319050919050565b5f600b5f8373ffffffffffffffffffffffffffffffffffffffff1673ffffffffffffffffffffffffffffffffffffffff1681526020019081526020015f20549050919050565b611152611c4a565b61115b5f611ed2565b565b60095481565b5f60085f9054906101000a900460ff16156111b3576040517f08c379a00000000000000000000000000000000000000000000000000000000081526004016111aa90612ea0565b60405180910390fd5b600d5f3373ffffffffffffffffffffffffffffffffffffffff1673ffffffffffffffffffffffffffffffffffffffff1681526020019081526020015f205f8481526020019081526020015f205482111561120b575f80fd5b60065f9054906101000a900473ffffffffffffffffffffffffffffffffffffffff1673ffffffffffffffffffffffffffffffffffffffff166370a08231306040518263ffffffff1660e01b8152600401611265919061278c565b602060405180830381865afa158015611280573d5f803e3d5ffd5b505050506040513d601f19601f820116820180604052508101906112a49190612b7e565b8211156112e6576040517f08c379a00000000000000000000000000000000000000000000000000000000081526004016112dd90612f08565b60405180910390fd5b81600b5f3373ffffffffffffffffffffffffffffffffffffffff1673ffffffffffffffffffffffffffffffffffffffff1681526020019081526020015f205f8282546113329190612c44565b9250508190555081600b5f3073ffffffffffffffffffffffffffffffffffffffff1673ffffffffffffffffffffffffffffffffffffffff1681526020019081526020015f205f8282546113859190612c11565b9250508190555081600d5f3373ffffffffffffffffffffffffffffffffffffffff1673ffffffffffffffffffffffffffffffffffffffff1681526020019081526020015f205f8581526020019081526020015f205f8282546113e79190612c44565b9250508190555081600d5f3073ffffffffffffffffffffffffffffffffffffffff1673ffffffffffffffffffffffffffffffffffffffff1681526020019081526020015f205f8581526020019081526020015f205f8282546114499190612c11565b925050819055505f60065f9054906101000a900473ffffffffffffffffffffffffffffffffffffffff1673ffffffffffffffffffffffffffffffffffffffff166323b872dd3033670de0b6b3a7640000876114a49190612c77565b6040518463ffffffff1660e01b81526004016114c293929190612f26565b6020604051808303815f875af11580156114de573d5f803e3d5ffd5b505050506040513d601f19601f820116820180604052508101906115029190612cf3565b905080611544576040517f08c379a000000000000000000000000000000000000000000000000000000000815260040161153b90612d68565b60405180910390fd5b3373ffffffffffffffffffffffffffffffffffffffff167f3ea35e37925c43a4138631a7bbdbd1349afe6857f7edfa87e0d7b6e97db220308460405161158a9190612545565b60405180910390a2600191505092915050565b5f60065f9054906101000a900473ffffffffffffffffffffffffffffffffffffffff1673ffffffffffffffffffffffffffffffffffffffff166370a08231836040518263ffffffff1660e01b81526004016115f8919061278c565b602060405180830381865afa158015611613573d5f803e3d5ffd5b505050506040513d601f19601f820116820180604052508101906116379190612b7e565b9050919050565b5f60055f9054906101000a900473ffffffffffffffffffffffffffffffffffffffff16905090565b600a5481565b611674611c4a565b5f81116116b6576040517f08c379a00000000000000000000000000000000000000000000000000000000081526004016116ad90612fa5565b60405180910390fd5b7f8aa4fa52648a6d15edce8a179c792c86f3719d0cc3c572cf90f91948f0f2cb68600754826040516116e9929190612fc3565b60405180910390a1806007819055507f6bfd5e75539a9d2626425a2e2922675256b219fe546d63dad56011759b9a2f66816040516117279190612545565b60405180910390a150565b606060048054611741906129e0565b80601f016020809104026020016040519081016040528092919081815260200182805461176d906129e0565b80156117b85780601f1061178f576101008083540402835291602001916117b8565b820191905f5260205f20905b81548152906001019060200180831161179b57829003601f168201915b5050505050905090565b5f600754905090565b5f806117d5611c31565b90506117e2818585611d63565b600191505092915050565b600860019054906101000a900473ffffffffffffffffffffffffffffffffffffffff1681565b600c602052805f5260405f205f91509050805f015f9054906101000a900473ffffffffffffffffffffffffffffffffffffffff1690806001015490806002015490806003018054611863906129e0565b80601f016020809104026020016040519081016040528092919081815260200182805461188f906129e0565b80156118da5780601f106118b1576101008083540402835291602001916118da565b820191905f5260205f20905b8154815290600101906020018083116118bd57829003601f168201915b5050505050905084565b6118ec611c4a565b5f821161192e576040517f08c379a00000000000000000000000000000000000000000000000000000000081526004016119259061305a565b60405180910390fd5b6040518060800160405280600860019054906101000a900473ffffffffffffffffffffffffffffffffffffffff1673ffffffffffffffffffffffffffffffffffffffff16815260200183815260200183815260200182815250600c5f60095481526020019081526020015f205f820151815f015f6101000a81548173ffffffffffffffffffffffffffffffffffffffff021916908373ffffffffffffffffffffffffffffffffffffffff16021790555060208201518160010155604082015181600201556060820151816003019081611a07919061320c565b5090505081600d5f600860019054906101000a900473ffffffffffffffffffffffffffffffffffffffff1673ffffffffffffffffffffffffffffffffffffffff1673ffffffffffffffffffffffffffffffffffffffff1681526020019081526020015f205f60095481526020019081526020015f205f828254611a8a9190612c44565b9250508190555060095f815480929190611aa3906132db565b9190505550600860019054906101000a900473ffffffffffffffffffffffffffffffffffffffff1673ffffffffffffffffffffffffffffffffffffffff166001600954611af09190612c11565b7ff54837c9ba235cb37cd834add22a366a600686d55bc588af257f7928dacb198b84604051611b1f9190612545565b60405180910390a35050565b5f60015f8473ffffffffffffffffffffffffffffffffffffffff1673ffffffffffffffffffffffffffffffffffffffff1681526020019081526020015f205f8373ffffffffffffffffffffffffffffffffffffffff1673ffffffffffffffffffffffffffffffffffffffff1681526020019081526020015f2054905092915050565b611bb5611c4a565b5f73ffffffffffffffffffffffffffffffffffffffff168173ffffffffffffffffffffffffffffffffffffffff1603611c25575f6040517f1e4fbdf7000000000000000000000000000000000000000000000000000000008152600401611c1c919061278c565b60405180910390fd5b611c2e81611ed2565b50565b5f33905090565b611c458383836001611f95565b505050565b611c52611c31565b73ffffffffffffffffffffffffffffffffffffffff16611c7061163e565b73ffffffffffffffffffffffffffffffffffffffff1614611ccf57611c93611c31565b6040517f118cdaa7000000000000000000000000000000000000000000000000000000008152600401611cc6919061278c565b60405180910390fd5b565b5f611cdc8484611b2b565b90507fffffffffffffffffffffffffffffffffffffffffffffffffffffffffffffffff8114611d5d5781811015611d4e578281836040517ffb8f41b2000000000000000000000000000000000000000000000000000000008152600401611d4593929190613322565b60405180910390fd5b611d5c84848484035f611f95565b5b50505050565b5f73ffffffffffffffffffffffffffffffffffffffff168373ffffffffffffffffffffffffffffffffffffffff1603611dd3575f6040517f96c6fd1e000000000000000000000000000000000000000000000000000000008152600401611dca919061278c565b60405180910390fd5b5f73ffffffffffffffffffffffffffffffffffffffff168273ffffffffffffffffffffffffffffffffffffffff1603611e43575f6040517fec442f05000000000000000000000000000000000000000000000000000000008152600401611e3a919061278c565b60405180910390fd5b611e4e838383612164565b505050565b5f73ffffffffffffffffffffffffffffffffffffffff168273ffffffffffffffffffffffffffffffffffffffff1603611ec3575f6040517fec442f05000000000000000000000000000000000000000000000000000000008152600401611eba919061278c565b60405180910390fd5b611ece5f8383612164565b5050565b5f60055f9054906101000a900473ffffffffffffffffffffffffffffffffffffffff1690508160055f6101000a81548173ffffffffffffffffffffffffffffffffffffffff021916908373ffffffffffffffffffffffffffffffffffffffff1602179055508173ffffffffffffffffffffffffffffffffffffffff168173ffffffffffffffffffffffffffffffffffffffff167f8be0079c531659141344cd1fd0a4f28419497f9722a3daafe3b4186f6b6457e060405160405180910390a35050565b5f73ffffffffffffffffffffffffffffffffffffffff168473ffffffffffffffffffffffffffffffffffffffff1603612005575f6040517fe602df05000000000000000000000000000000000000000000000000000000008152600401611ffc919061278c565b60405180910390fd5b5f73ffffffffffffffffffffffffffffffffffffffff168373ffffffffffffffffffffffffffffffffffffffff1603612075575f6040517f94280d6200000000000000000000000000000000000000000000000000000000815260040161206c919061278c565b60405180910390fd5b8160015f8673ffffffffffffffffffffffffffffffffffffffff1673ffffffffffffffffffffffffffffffffffffffff1681526020019081526020015f205f8573ffffffffffffffffffffffffffffffffffffffff1673ffffffffffffffffffffffffffffffffffffffff1681526020019081526020015f2081905550801561215e578273ffffffffffffffffffffffffffffffffffffffff168473ffffffffffffffffffffffffffffffffffffffff167f8c5be1e5ebec7d5bd14f71427d1e84f3dd0314c0f7b2291e5b200ac8c7c3b925846040516121559190612545565b60405180910390a35b50505050565b5f73ffffffffffffffffffffffffffffffffffffffff168373ffffffffffffffffffffffffffffffffffffffff16036121b4578060025f8282546121a89190612c44565b92505081905550612282565b5f805f8573ffffffffffffffffffffffffffffffffffffffff1673ffffffffffffffffffffffffffffffffffffffff1681526020019081526020015f205490508181101561223d578381836040517fe450d38c00000000000000000000000000000000000000000000000000000000815260040161223493929190613322565b60405180910390fd5b8181035f808673ffffffffffffffffffffffffffffffffffffffff1673ffffffffffffffffffffffffffffffffffffffff1681526020019081526020015f2081905550505b5f73ffffffffffffffffffffffffffffffffffffffff168273ffffffffffffffffffffffffffffffffffffffff16036122c9578060025f8282540392505081905550612313565b805f808473ffffffffffffffffffffffffffffffffffffffff1673ffffffffffffffffffffffffffffffffffffffff1681526020019081526020015f205f82825401925050819055505b8173ffffffffffffffffffffffffffffffffffffffff168373ffffffffffffffffffffffffffffffffffffffff167fddf252ad1be2c89b69c2b068fc378daa952ba7f163c4a11628f55a4df523b3ef836040516123709190612545565b60405180910390a3505050565b5f81519050919050565b5f82825260208201905092915050565b5f5b838110156123b4578082015181840152602081019050612399565b5f8484015250505050565b5f601f19601f8301169050919050565b5f6123d98261237d565b6123e38185612387565b93506123f3818560208601612397565b6123fc816123bf565b840191505092915050565b5f6020820190508181035f83015261241f81846123cf565b905092915050565b5f604051905090565b5f80fd5b5f80fd5b5f73ffffffffffffffffffffffffffffffffffffffff82169050919050565b5f61246182612438565b9050919050565b61247181612457565b811461247b575f80fd5b50565b5f8135905061248c81612468565b92915050565b5f819050919050565b6124a481612492565b81146124ae575f80fd5b50565b5f813590506124bf8161249b565b92915050565b5f80604083850312156124db576124da612430565b5b5f6124e88582860161247e565b92505060206124f9858286016124b1565b9150509250929050565b5f8115159050919050565b61251781612503565b82525050565b5f6020820190506125305f83018461250e565b92915050565b61253f81612492565b82525050565b5f6020820190506125585f830184612536565b92915050565b61256781612503565b8114612571575f80fd5b50565b5f813590506125828161255e565b92915050565b5f6020828403121561259d5761259c612430565b5b5f6125aa84828501612574565b91505092915050565b5f602082840312156125c8576125c7612430565b5b5f6125d5848285016124b1565b91505092915050565b5f80604083850312156125f4576125f3612430565b5b5f612601858286016124b1565b92505060206126128582860161247e565b9150509250929050565b5f805f6060848603121561263357612632612430565b5b5f6126408682870161247e565b93505060206126518682870161247e565b9250506040612662868287016124b1565b9150509250925092565b5f60ff82169050919050565b6126818161266c565b82525050565b5f60208201905061269a5f830184612678565b92915050565b5f80604083850312156126b6576126b5612430565b5b5f6126c3858286016124b1565b92505060206126d4858286016124b1565b9150509250929050565b5f819050919050565b5f6127016126fc6126f784612438565b6126de565b612438565b9050919050565b5f612712826126e7565b9050919050565b5f61272382612708565b9050919050565b61273381612719565b82525050565b5f60208201905061274c5f83018461272a565b92915050565b5f6020828403121561276757612766612430565b5b5f6127748482850161247e565b91505092915050565b61278681612457565b82525050565b5f60208201905061279f5f83018461277d565b92915050565b5f6080820190506127b85f83018761277d565b6127c56020830186612536565b6127d26040830185612536565b81810360608301526127e481846123cf565b905095945050505050565b5f80fd5b5f80fd5b7f4e487b71000000000000000000000000000000000000000000000000000000005f52604160045260245ffd5b61282d826123bf565b810181811067ffffffffffffffff8211171561284c5761284b6127f7565b5b80604052505050565b5f61285e612427565b905061286a8282612824565b919050565b5f67ffffffffffffffff821115612889576128886127f7565b5b612892826123bf565b9050602081019050919050565b828183375f83830152505050565b5f6128bf6128ba8461286f565b612855565b9050828152602081018484840111156128db576128da6127f3565b5b6128e684828561289f565b509392505050565b5f82601f830112612902576129016127ef565b5b81356129128482602086016128ad565b91505092915050565b5f806040838503121561293157612930612430565b5b5f61293e858286016124b1565b925050602083013567ffffffffffffffff81111561295f5761295e612434565b5b61296b858286016128ee565b9150509250929050565b5f806040838503121561298b5761298a612430565b5b5f6129988582860161247e565b92505060206129a98582860161247e565b9150509250929050565b7f4e487b71000000000000000000000000000000000000000000000000000000005f52602260045260245ffd5b5f60028204905060018216806129f757607f821691505b602082108103612a0a57612a096129b3565b5b50919050565b7f53656c6c2069732073746f7070656400000000000000000000000000000000005f82015250565b5f612a44600f83612387565b9150612a4f82612a10565b602082019050919050565b5f6020820190508181035f830152612a7181612a38565b9050919050565b7f4e487b71000000000000000000000000000000000000000000000000000000005f52601260045260245ffd5b7f4e487b71000000000000000000000000000000000000000000000000000000005f52601160045260245ffd5b5f612adc82612492565b9150612ae783612492565b925082612af757612af6612a78565b5b828204905092915050565b7f496e73756666696369656e742045746865722073656e740000000000000000005f82015250565b5f612b36601783612387565b9150612b4182612b02565b602082019050919050565b5f6020820190508181035f830152612b6381612b2a565b9050919050565b5f81519050612b788161249b565b92915050565b5f60208284031215612b9357612b92612430565b5b5f612ba084828501612b6a565b91505092915050565b7f4e6f20656e6f75676820546f6b656e7320746f2073656c6c00000000000000005f82015250565b5f612bdd601883612387565b9150612be882612ba9565b602082019050919050565b5f6020820190508181035f830152612c0a81612bd1565b9050919050565b5f612c1b82612492565b9150612c2683612492565b9250828203905081811115612c3e57612c3d612aa5565b5b92915050565b5f612c4e82612492565b9150612c5983612492565b9250828201905080821115612c7157612c70612aa5565b5b92915050565b5f612c8182612492565b9150612c8c83612492565b9250828202612c9a81612492565b91508282048414831517612cb157612cb0612aa5565b5b5092915050565b5f604082019050612ccb5f83018561277d565b612cd86020830184612536565b9392505050565b5f81519050612ced8161255e565b92915050565b5f60208284031215612d0857612d07612430565b5b5f612d1584828501612cdf565b91505092915050565b7f4661696c656420746f207472616e7366657220746f6b656e20746f20757365725f82015250565b5f612d52602083612387565b9150612d5d82612d1e565b602082019050919050565b5f6020820190508181035f830152612d7f81612d46565b9050919050565b7f4d696e74696e672069732073746f7070656400000000000000000000000000005f82015250565b5f612dba601283612387565b9150612dc582612d86565b602082019050919050565b5f6020820190508181035f830152612de781612dae565b9050919050565b7f496e76616c696420616d6f756e7420746f207472616e736665720000000000005f82015250565b5f612e22601a83612387565b9150612e2d82612dee565b602082019050919050565b5f6020820190508181035f830152612e4f81612e16565b9050919050565b7f4f7065726174696f6e2069732073746f707065640000000000000000000000005f82015250565b5f612e8a601483612387565b9150612e9582612e56565b602082019050919050565b5f6020820190508181035f830152612eb781612e7e565b9050919050565b7f4e6f20656e6f75676820546f6b656e7320746f2072657475726e0000000000005f82015250565b5f612ef2601a83612387565b9150612efd82612ebe565b602082019050919050565b5f6020820190508181035f830152612f1f81612ee6565b9050919050565b5f606082019050612f395f83018661277d565b612f46602083018561277d565b612f536040830184612536565b949350505050565b7f5072696365206d7573742062652067726561746572207468616e207a65726f005f82015250565b5f612f8f601f83612387565b9150612f9a82612f5b565b602082019050919050565b5f6020820190508181035f830152612fbc81612f83565b9050919050565b5f604082019050612fd65f830185612536565b612fe36020830184612536565b9392505050565b7f546f74616c20737570706c79206d7573742062652067726561746572207468615f8201527f6e207a65726f0000000000000000000000000000000000000000000000000000602082015250565b5f613044602683612387565b915061304f82612fea565b604082019050919050565b5f6020820190508181035f83015261307181613038565b9050919050565b5f819050815f5260205f209050919050565b5f6020601f8301049050919050565b5f82821b905092915050565b5f600883026130d47fffffffffffffffffffffffffffffffffffffffffffffffffffffffffffffffff82613099565b6130de8683613099565b95508019841693508086168417925050509392505050565b5f61311061310b61310684612492565b6126de565b612492565b9050919050565b5f819050919050565b613129836130f6565b61313d61313582613117565b8484546130a5565b825550505050565b5f90565b613151613145565b61315c818484613120565b505050565b5b8181101561317f576131745f82613149565b600181019050613162565b5050565b601f8211156131c45761319581613078565b61319e8461308a565b810160208510156131ad578190505b6131c16131b98561308a565b830182613161565b50505b505050565b5f82821c905092915050565b5f6131e45f19846008026131c9565b1980831691505092915050565b5f6131fc83836131d5565b9150826002028217905092915050565b6132158261237d565b67ffffffffffffffff81111561322e5761322d6127f7565b5b61323882546129e0565b613243828285613183565b5f60209050601f831160018114613274575f8415613262578287015190505b61326c85826131f1565b8655506132d3565b601f19841661328286613078565b5f5b828110156132a957848901518255600182019150602085019450602081019050613284565b868310156132c657848901516132c2601f8916826131d5565b8355505b6001600288020188555050505b505050505050565b5f6132e582612492565b91507fffffffffffffffffffffffffffffffffffffffffffffffffffffffffffffffff820361331757613316612aa5565b5b600182019050919050565b5f6060820190506133355f83018661277d565b6133426020830185612536565b61334f6040830184612536565b94935050505056fea2646970667358221220fe9095025a17a632756b144ed444c4571e0bd1b1e130e44d4339f94e982ebcf464736f6c63430008140033",
  "immutableReferences": {},
  "source": "// SPDX-License-Identifier: MIT\npragma solidity ^0.8.19;\n\nimport \"@openzeppelin/contracts/token/ERC20/ERC20.sol\";\nimport \"@openzeppelin/contracts/access/Ownable.sol\";\n\ncontract RefuToken is ERC20, Ownable {\n  //  using SafeMath for uint256;\n    \n    IERC20 public refuToken;\n    uint256 private _price; //Token price for ETH. IE: 100 tokens for 1 eth. \n    bool private _emergencyStop;\n\n    //Estructura del Activo \"tokenizado\": El apartamento con el costo en refutoken\n     struct TokenizedAsset {\n        address owner;\n        uint256 totalSupply; //In REUTOKEN\n        uint256 remainingSupply;\n        string name;\n    }\n\n    address public _owner = address(this);\n    uint256 public nextTokenId = 1;\n    uint256 public fractionalDecimal = 3;\n\n   \n    mapping(address => uint256) private _tokenBalances; //balance interno de Refutoken\n    mapping(uint256 => TokenizedAsset) public tokenizedAssets; //Apartamentos \"tokenizado\" con la estructura \n    mapping(address => mapping(uint256 => uint256)) public fractionalBalances; //Balance interno por address de refutoken por apartamento\n\n    //Eventos \n    event PriceSet(uint256 price);\n    event EmergencyStop(bool stopped);\n    event EmergencyStopActivated(address indexed by);\n    event TransferEvt(address indexed from, address indexed to, uint256 value);\n    event PriceChanged(uint256 oldPrice, uint256 newPrice);\n    event TokensPurchased(address indexed purchaser, uint256 amount);\n    event TokensReturned(address indexed purchaser, uint256 amount);\n    event BuyTokens(address buyer, uint256 amountOfETH, uint256 amountOfTokens);\n    event AssetCreated(uint256 indexed tokenId, address indexed owner, uint256 totalSupply);\n    event OwnershipTransferred(uint256 indexed tokenId, address indexed from, address indexed to);\n\n    //se genera el REFUTOKEN ERC20\n    constructor(uint256 initialPrice, address initialOwner) ERC20(\"RefuToken\", \"REFU\") Ownable(initialOwner) {\n        refuToken = RefuToken(address(this));\n        _emergencyStop = false;\n        _price = initialPrice; // RefuToken dados por por ETH\n        _mint(address(this), 1000000 * 10 ** 18);\n        _tokenBalances[address(this)] += 1000000; \n    }\n\n    //Mint de Tokens.\n    function mint(address account, uint256 amount) external onlyOwner {\n        require(!_emergencyStop, \"Minting is stopped\");\n        _mint(account, amount);\n        _tokenBalances[account] += amount;\n    }\n\n    //Funcin para ajueste de precio de REFUTOKEN.\n    function setPrice(uint256 price) external onlyOwner {\n        require(price > 0, \"Price must be greater than zero\");\n        emit PriceChanged(_price, price);\n        _price = price;\n        emit PriceSet(price);\n    }\n\n    //Funcin de paro de emergencia. \n    function emergencyStop(bool stopped) external onlyOwner {\n        _emergencyStop = stopped;\n        emit EmergencyStop(stopped);\n        if (stopped) {\n            emit EmergencyStopActivated(msg.sender);\n        }\n    }\n\n\n    //Funcin para que el cliente/usuario compre REFUTOKENS \n    function CustomerBuyToken(uint numTokens) external payable returns (bool) {\n            require(!_emergencyStop, \"Sell is stopped\");\n            uint256 amount = msg.value / _price;\n            require(amount > 0, \"Insufficient Ether sent\");\n\n            require(numTokens <= refuToken.balanceOf(address(this)),\"No enough Tokens to sell\");\n            //Ajusta Balances internos de REFUTOKEN\n            _tokenBalances[address(this)] -= numTokens;\n            _tokenBalances[msg.sender] += numTokens;\n            // Transfiere Tokens al  msg.sender\n            (bool sent) = refuToken.transfer(msg.sender, numTokens * 10 ** 18);\n            require(sent, \"Failed to transfer token to user\");\n            \n            emit TokensPurchased( msg.sender, numTokens);\n    return true;\n    }\n\n    //Funcin para Regresar al cliente/msg.sender REFUTOKENS a su cuenta desde el apartamento donde se prest\n    function ReturnToken(uint TokenId, uint256 numTokens) external returns (bool) {\n            require(!_emergencyStop, \"Operation is stopped\");\n            require(numTokens <= fractionalBalances[msg.sender][TokenId]);\n            require(numTokens <= refuToken.balanceOf(address(this)),\"No enough Tokens to return\");\n            _tokenBalances[msg.sender] += numTokens;\n            _tokenBalances[address(this)] -= numTokens;\n            fractionalBalances[msg.sender][TokenId] += numTokens;\n            fractionalBalances[address(this)][TokenId] -= numTokens;\n            // Transfer token to the msg.sender\n            \n             //refuToken.transferFrom(address(this), msg.sender, numTokens);\n            (bool sent) = refuToken.transferFrom(address(this), msg.sender, numTokens * 10 ** 18);\n            require(sent, \"Failed to transfer token to user\");\n\n            emit TokensReturned( msg.sender, numTokens);\n    return true;\n    }\n\n\n\n        //Funcin para crear el apartamento, \n\n        function createAsset(uint256 totalSupply, string memory assetName ) public onlyOwner {\n        require(totalSupply > 0, \"Total supply must be greater than zero\");\n\n        tokenizedAssets[nextTokenId] = TokenizedAsset({\n            owner: _owner,\n            totalSupply: totalSupply,\n            remainingSupply: totalSupply,\n            name: assetName\n        });\n        fractionalBalances[_owner][nextTokenId] += totalSupply;\n        nextTokenId++;\n\n        emit AssetCreated(nextTokenId - 1, _owner, totalSupply);\n    }\n\n\n    //Funcin para que el cliente presete una fraccin del apartamento con REFUTOKENS\n    function CustomerBuyAsset(uint256 tokenId, uint256 amount) external {\n        TokenizedAsset storage asset = tokenizedAssets[tokenId];\n        //require(asset.owner == msg.sender, \"Only the owner can transfer ownership\");\n        require(amount > 0 && amount <= asset.remainingSupply, \"Invalid amount to transfer\");\n\n        asset.remainingSupply -= amount;\n        //Asigna al balance fraccional la cantidad de token al usuario\n        fractionalBalances[msg.sender][tokenId] += amount;\n        //Quita al balance fraccional la cantidad de token al contrato\n        fractionalBalances[_owner][tokenId] -= amount;\n        //Reduce el balance de token del usuario.\n        _tokenBalances[msg.sender] -= amount; \n        // Trasnfiere el REFUTOKEN desde prestador al contrato\n        (bool sent) = refuToken.transfer(address(this), amount * 10 ** 18);\n        require(sent, \"Failed to transfer token to user\"); \n\n        emit OwnershipTransferred(tokenId, msg.sender, address(this));\n    }\n\n\n\n    //Funciones de consulta\n\n    //Balance interno de refutoken\n    function balanceOf(address account) public view override returns (uint256) {\n        return _tokenBalances[account];\n    }\n\n    //Balance de refutoken en cuentas. \n    function REFUbalanceOf(address account) public view returns (uint256) {\n        return refuToken.balanceOf(account);\n    }\n\n    //Consulta Balance de ETH\n    function ethbalance(address account) public view returns  (uint256) {\n        return account.balance;\n    }\n\n    //Consulta Balance fraccional de Asset (apartamento) por cuenta \n    function fractionalOwnership(uint256 tokenId, address ownerAddress) public view returns (uint256) {\n        return fractionalBalances[ownerAddress][tokenId];\n    }\n    \n    //Consulta el precio del REFUTOKEN (Tokens por ETH)\n    function getPrice() public view returns (uint256) {\n        return _price;\n    }\n\n    //Consulta el paro de emergencia.\n    function getEmergencyStopStatus() public view returns (bool) {\n        return _emergencyStop;\n    }\n\n}\n/*\n    library SafeMath {\n        function sub(uint256 a, uint256 b) internal pure returns (uint256) {\n        assert(b <= a);\n        return a - b;\n        }\n\n        function add(uint256 a, uint256 b) internal pure returns (uint256) {\n        uint256 c = a + b;\n        assert(c >= a);\n        return c;\n        }\n    }\n*/\n",
  "sourcePath": "/Users/Joselo/Documents/IEBS/Global Project/RefuToken/RefuToken/contracts/RefuToken.sol",
  "compiler": {
    "name": "solc",
    "version": "0.8.20+commit.a1b79de6.Emscripten.clang"
  },
  "schemaVersion": "3.4.16",
  "updatedAt": "2024-04-07T07:48:32.389Z",
  "devdoc": {
    "errors": {
      "ERC20InsufficientAllowance(address,uint256,uint256)": [
        {
          "details": "Indicates a failure with the `spender`s `allowance`. Used in transfers.",
          "params": {
            "allowance": "Amount of tokens a `spender` is allowed to operate with.",
            "needed": "Minimum amount required to perform a transfer.",
            "spender": "Address that may be allowed to operate on tokens without being their owner."
          }
        }
      ],
      "ERC20InsufficientBalance(address,uint256,uint256)": [
        {
          "details": "Indicates an error related to the current `balance` of a `sender`. Used in transfers.",
          "params": {
            "balance": "Current balance for the interacting account.",
            "needed": "Minimum amount required to perform a transfer.",
            "sender": "Address whose tokens are being transferred."
          }
        }
      ],
      "ERC20InvalidApprover(address)": [
        {
          "details": "Indicates a failure with the `approver` of a token to be approved. Used in approvals.",
          "params": {
            "approver": "Address initiating an approval operation."
          }
        }
      ],
      "ERC20InvalidReceiver(address)": [
        {
          "details": "Indicates a failure with the token `receiver`. Used in transfers.",
          "params": {
            "receiver": "Address to which tokens are being transferred."
          }
        }
      ],
      "ERC20InvalidSender(address)": [
        {
          "details": "Indicates a failure with the token `sender`. Used in transfers.",
          "params": {
            "sender": "Address whose tokens are being transferred."
          }
        }
      ],
      "ERC20InvalidSpender(address)": [
        {
          "details": "Indicates a failure with the `spender` to be approved. Used in approvals.",
          "params": {
            "spender": "Address that may be allowed to operate on tokens without being their owner."
          }
        }
      ],
      "OwnableInvalidOwner(address)": [
        {
          "details": "The owner is not a valid owner account. (eg. `address(0)`)"
        }
      ],
      "OwnableUnauthorizedAccount(address)": [
        {
          "details": "The caller account is not authorized to perform an operation."
        }
      ]
    },
    "events": {
      "Approval(address,address,uint256)": {
        "details": "Emitted when the allowance of a `spender` for an `owner` is set by a call to {approve}. `value` is the new allowance."
      },
      "Transfer(address,address,uint256)": {
        "details": "Emitted when `value` tokens are moved from one account (`from`) to another (`to`). Note that `value` may be zero."
      }
    },
    "kind": "dev",
    "methods": {
      "allowance(address,address)": {
        "details": "See {IERC20-allowance}."
      },
      "approve(address,uint256)": {
        "details": "See {IERC20-approve}. NOTE: If `value` is the maximum `uint256`, the allowance is not updated on `transferFrom`. This is semantically equivalent to an infinite approval. Requirements: - `spender` cannot be the zero address."
      },
      "balanceOf(address)": {
        "details": "See {IERC20-balanceOf}."
      },
      "decimals()": {
        "details": "Returns the number of decimals used to get its user representation. For example, if `decimals` equals `2`, a balance of `505` tokens should be displayed to a user as `5.05` (`505 / 10 ** 2`). Tokens usually opt for a value of 18, imitating the relationship between Ether and Wei. This is the default value returned by this function, unless it's overridden. NOTE: This information is only used for _display_ purposes: it in no way affects any of the arithmetic of the contract, including {IERC20-balanceOf} and {IERC20-transfer}."
      },
      "name()": {
        "details": "Returns the name of the token."
      },
      "owner()": {
        "details": "Returns the address of the current owner."
      },
      "renounceOwnership()": {
        "details": "Leaves the contract without owner. It will not be possible to call `onlyOwner` functions. Can only be called by the current owner. NOTE: Renouncing ownership will leave the contract without an owner, thereby disabling any functionality that is only available to the owner."
      },
      "symbol()": {
        "details": "Returns the symbol of the token, usually a shorter version of the name."
      },
      "totalSupply()": {
        "details": "See {IERC20-totalSupply}."
      },
      "transfer(address,uint256)": {
        "details": "See {IERC20-transfer}. Requirements: - `to` cannot be the zero address. - the caller must have a balance of at least `value`."
      },
      "transferFrom(address,address,uint256)": {
        "details": "See {IERC20-transferFrom}. Emits an {Approval} event indicating the updated allowance. This is not required by the EIP. See the note at the beginning of {ERC20}. NOTE: Does not update the allowance if the current allowance is the maximum `uint256`. Requirements: - `from` and `to` cannot be the zero address. - `from` must have a balance of at least `value`. - the caller must have allowance for ``from``'s tokens of at least `value`."
      },
      "transferOwnership(address)": {
        "details": "Transfers ownership of the contract to a new account (`newOwner`). Can only be called by the current owner."
      }
    },
    "version": 1
  },
  "userdoc": {
    "kind": "user",
    "methods": {},
    "version": 1
  }
}